:020000040800F2
:1000000078040020AD010008CF110008C7100008D7
:10001000CD110008B90200085D14000800000000BE
:100020000000000000000000000000002312000893
:10003000BB02000800000000D111000825120008D2
:10004000C7010008C7010008C7010008C701000870
:10005000C7010008C7010008C7010008C701000860
:10006000C7010008C7010008C7010008C701000850
:10007000C7010008C7010008C7010008C701000840
:10008000C7010008C7010008C70100080000000000
:10009000000000000000000000000000C701000890
:1000A000C7010008C7010008C7010008C701000810
:1000B000C7010008C7010008C7010008C701000800
:1000C000C7010008C7010008C7010008C7010008F0
:1000D000C7010008C7010008C701000800000000B0
:1000E000BD020008C7010008C701000800000000A9
:1000F000000000000000000000000000C701000830
:1001000000000000C7010008C7010008C70100087F
:1001100000000000000000000000000000000000DF
:10012000C7010008C7010008C7010008C70100088F
:10013000C7010008000000000000000000000000EF
:10014000000000000000000000000000C7010008DF
:10015000C7010008C7010008C7010008C70100085F
:10016000C7010008C70100080000000000000000EF
:10017000000000000000000000000000000000007F
:1001800000000000C701000800000000000000009F
:10019000C7010008DFF810D000F07CF800480047E5
:1001A000C1170008AFF3008078040020064880479C
:1001B00006480047FEE7FEE7FEE7FEE7FEE7FEE74C
:1001C000FEE7FEE7FEE7FEE7B5120008950100082E
:1001D0002DE9F05F0546002092469B46884606467C
:1001E000814640241BE0284641464746224600F00F
:1001F00041F853465A46C01A914110D31146184649
:10020000224600F028F82D1A67EB01084F462246D7
:100210000120002100F01FF817EB00094E41201EBD
:10022000A4F10104DFDC484631462A464346BDE8D6
:10023000F09FD2B201E000F8012B491EFBD27047BB
:100240000022F6E710B513460A4604461946FFF7A2
:10025000F0FF204610BD202A04DB203A00FA02F10C
:10026000002070479140C2F1200320FA03F31943A4
:1002700090407047202A04DB203A21FA02F0002146
:10028000704721FA02F3D040C2F1200291400843A6
:1002900019467047064C074D06E0E06840F0010340
:1002A00094E8070098471034AC42F6D3FFF776FF86
:1002B0007818000898180008FEE77047074810B53E
:1002C00000684FF48054C00402D5204600F01CF8AA
:1002D0002046BDE8104000F017B80000143C014073
:1002E00070B5044600F0ECF80546601C02D00448E6
:1002F0000078044400F0E4F8401BA042FAD370BD3B
:100300000400002070470000044910B50A6802424A
:1003100002D00860FFF7F6FF10BD0000143C01405A
:100320002DE9F84F00224FF0010803254FF00F0E82
:100330000B6808FA02F42340A34271D14E68012EE3
:1003400005D0022E03D0112E01D0122E15D18668B1
:10035000570005FA07FC26EA0C06D1F80CC00CFA87
:1003600007FC4CEA060CC0F808C04668A6430C79A6
:10037000C4F30014944034434460C668570005FA3F
:1003800007FC8C6826EA0C06BC403443C4604C6809
:10039000022C01D0122C13D1D40800EB8404A34604
:1003A000D4F8209054074FEAD46A0EFA0AF629EAE4
:1003B00006090E6906FA0AF646EA0906CBF8206035
:1003C00004680E7924EA0C0406F00306BE402643B6
:1003D00006604C68E40056D52E4C266846F48046EC
:1003E0002660246822F0030604F4804400942A4C1A
:1003F0003444A446D4F808489607370F0EFA07F697
:10040000B443264EB04201D1002615E0244EB0423E
:1004100001D1012610E0234EB04202D102260BE0AA
:1004200031E0214EB04201D1032605E01F4EB0421B
:1004300001D1042600E00726BE402643CCF8086818
:100440001B4E34684F689C43FF0300D51C43346047
:10045000174E361D34684F689C43BF0300D51C43BC
:100460003460134E083634684F689C43FF0200D551
:100470001C4334600E4E0C3634684F689C43BF02F8
:1004800000D51C433460521C102AFFF451AFBDE864
:10049000F88F000044380240003001400000024064
:1004A0000004024000080240000C0240001002401C
:1004B000003C01400AB1816170470904FBE700007C
:1004C00001488068704700000400002002488168ED
:1004D0000278114481607047040000200B4810B579
:1004E000016841F400710160016841F480610160BC
:1004F000016841F480710160032000F061F8002080
:1005000000F006F800F024F8002010BD003C024086
:1005100070B50D4D04464FF47A712878B1FBF0F0B8
:100520000A490968B1FBF0F000F0F5FC48B9102C5D
:1005300007D200222146501E00F022F800206C60F5
:1005400070BD012070BD00000400002010000020DC
:100550000A4808B5016841F480410160006800F470
:10056000804000900548001F016841F08051016003
:10057000006800F08050009008BD00004438024040
:10058000F0B40E4B1B680C46C3F30223C3F10705FE
:10059000042D00D90425191D072901D2002300E0EC
:1005A000DB1E012606FA05F1491E214099409E40B6
:1005B000761E16403143F0BC00F062BF0CED00E047
:1005C000064900F0070208684FF6FF03184040EAAA
:1005D0000220034A10430860704700000CED00E061
:1005E0000000FA052DE9F843044600684FF00109C0
:1005F000C1074FF0000601D1400727D5DFF81C8165
:10060000C8F86860FFF75CFF0746454D05E000BF8E
:10061000FFF756FFC01B022857D828680001F7D4FF
:1006200060688101207A41EA00703D4984310860A8
:10063000C8F86890FFF744FF074604E0FFF740FF63
:10064000C01B022841D828680001F7D52078800710
:1006500052D533484030016841F080510160006854
:10066000304D00F080500090286840F48070286081
:10067000FFF726FF074604E0FFF722FFC01B022812
:1006800023D82868C005F7D5254D7035286810F4A3
:10069000407020D0A18901F4407181421BD02868AC
:1006A00020F440712048C0F8009006602960286856
:1006B000C00710D0FFF704FF064641F2883707E075
:1006C000FFF7FEFE801BB84202D90320BDE8F88385
:1006D00028688007F4D5E1681148C1F30122083089
:1006E000032A12D0016821F4F81101602868A18959
:1006F000C1F30B01084328602078000703D50B499C
:10070000207CC1F8E0010020E0E70268084B22F4F9
:10071000F81219400A430260E8E70000000047426F
:100720000038024000700040400E4742001047422F
:10073000FFFCFF0F2DE9F0470E46050065D0DFF8FE
:100740001481D8F80000F7B200F00F00B04207D2D1
:1007500088F80070D8F8000000F00F00B04254D1C3
:1007600028683D4C810712D5400703D5206840F426
:10077000E05020602878000703D5206840F46040EE
:1007800020602068A96820F0F000084320602878E5
:10079000C0072DD0304968680839012812D00228D6
:1007A00013D0032811D00968890700292DDA2168A0
:1007B00021F0030101432160FFF782FE814641F2EF
:1007C000883A0EE009688903EFE709688901ECE7D8
:1007D000FFF776FEA0EB0901514502D90320BDE8E1
:1007E000F0872068696800F00C00B0EB810FEFD152
:1007F000D8F80010404601F00F01B14207D9077048
:10080000006800F00F00B04201D00120E7E728782F
:10081000400705D52068E96820F4E05008432060CF
:100820002878000706D52068296920F4604040EA4E
:10083000C100206000F038F82168084AC1F30311B4
:10084000515CC8400649086006480068FFF760FE32
:100850000020C4E7003C024008380240601800084D
:1008600010000020080000200448054900680968BD
:10087000044AC1F38221515CC84070471000002037
:1008800008380240701800080448054900680968E3
:10089000044AC1F34231515CC84070471000002047
:1008A0000838024070180008154810B5006810F0AC
:1008B0000C02144813D01449042A0FD0082A0ED170
:1008C0000F4C241F2268236802F03F025B0207D509
:1008D0002068C0F38810A0FB010106E0084610BDA7
:1008E0002168C1F38811A1FB00010023FFF770FC10
:1008F0002168C1F30141491C4900B0FBF1F010BD72
:10090000083802400024F40040787D012DE9F84FBA
:10091000040076D02078DFF838A3CE4DC00749D048
:10092000DAF800105046C1F38101012908D00068AF
:10093000C0F3810002280AD1281D0068400206D5B4
:100940002868800336D560680028E2D032E060680D
:10095000B0F5803F10D0B0F5A02F286810D020F45B
:1009600080302860286820F4802028606068A0B16A
:10097000FFF7A6FD06460CE0286840F48030F4E757
:1009800040F480202860F7E7FFF79AFD801B642879
:1009900073D828688003F7D50CE0FFF791FD064671
:1009A00005E000BFFFF78CFD801B6428F0D82868A5
:1009B0008003F7D42078DFF8A08280074FF0000989
:1009C0003ED5DAF80010504611F00C0F09D000683F
:1009D000C0F3810002280BD19D48001F006840022F
:1009E00006D42868800715D5E068012809D111E0F0
:1009F000E068B8B10120C8F80000FFF761FD0646C5
:100A000005E020E1FFF75CFD801B0228C0D82868C4
:100A10008007F7D52868216920F0F80040EAC10076
:100A200028600DE0C8F80090FFF74AFD064604E094
:100A3000FFF746FD801B02281FD828688007F7D4DF
:100A40002078000722D5824E844861696C3671B1E6
:100A500001210160FFF734FD074604E0FFF730FD98
:100A6000C01B022809D830688007F7D50EE0C0F80F
:100A70000090FFF725FD074605E082E0FFF720FD27
:100A8000C01B02287DD830688007F7D42078400743
:100A900068D5DFF8BCB100270BF1380BDBF800009C
:100AA000C0000BD4DBF8001041F08051CBF80010EF
:100AB000DBF80000012700F080500090684E30689D
:100AC000C00510D4306840F480703060FFF7F8FC47
:100AD000009005E0FFF7F4FC0099401A022850D876
:100AE0003068C005F6D55A4EA068683601280FD088
:100AF0000528306810D020F001003060306820F008
:100B000004003060A068B8B1FFF7DAFC00900FE095
:100B1000306840F00100F4E740F004003060F7E78F
:100B2000FFF7CEFC0099411A41F28830814266D825
:100B300030688007F4D50EE0FFF7C2FC009007E0B4
:100B4000FFF7BEFC0099411A41F28830814256D825
:100B500030688007F4D42FB1DBF8001021F0805109
:100B6000CBF80010A069D0B3DAF800205146C2F3E8
:100B70008102022A4AD00228484607D0C8F86000FD
:100B800000E03CE0FFF79CFC04463BE04746C8F829
:100B90006000FFF795FC064605E000BFFFF790FCFC
:100BA000801B02282BD828688001F7D4D4E90701DC
:100BB0000843A16A2B4A490802EB0141626A41EAF3
:100BC0008211084394F82C1040EA01612048001F6C
:100BD000016001203866FFF773FC044605E034E04D
:100BE000FFF76EFC001B022809D828688001F7D5A2
:100BF0002BE000BFFFF764FC001B022802D9032092
:100C0000BDE8F88F28688001F4D41EE00128F7D0F1
:100C10000868E26900F48001914214D1226A00F070
:100C20003F0191420FD147F6C071626A0140914283
:100C300009D1A26A00F44031914204D1E16A00F086
:100C40007060884201D00120DAE70020D8E7000078
:100C5000083802400038024000004742800E4742F8
:100C6000007000400000FFFF70B5040002D0607FFC
:100C700010B106E0012070BD00202077204600F072
:100C800049F8022060772168CA2048622168532011
:100C90004862204600F0A8FAFF25042618BB206809
:100CA00081681B4A1140816021688868626810432E
:100CB000D4E904231A43104388602168E06808617E
:100CC00020680169228941EA024101612068C16806
:100CD00021F08001C16020688068800607D420462A
:100CE00000F0FEF818B1206845626677C2E7206818
:100CF000016C21F4802101642068016CA269114318
:100D000001642068456201206077002070BD00000A
:100D1000BFFF8FFF00680349884202D102490120CA
:100D200008607047002800403C0E47422DE9F0471C
:100D30000446007F0B4601281FD04FF0010984F8BC
:100D40001C9002206077DAB19878D97840EA0145A2
:100D500058781978000240EA413005432168CA20DA
:100D60004862216853204862204600F03DFA002680
:100D7000FF274FF0040860BB1AE00220BDE8F087AF
:100D80005878C10603D500F0EF000A305870D878C3
:100D900000F01FFA0204587800F01BFA42EA002221
:100DA000987800F016FA0243187842EA4035D5E701
:100DB0000F480540206845602068C16821F0800127
:100DC000C1602068806880060AD4204600F088F858
:100DD00030B12068476284F81D8026770120CDE776
:100DE0002068476284F81D9026770020C6E700003F
:100DF0003FFFFF002DE9F0470446007F0D46012824
:100E000027D04FF0010A84F81CA0022060772068E8
:100E1000002680684FEA4060F2B1002800DBEE70E7
:100E2000A878297840EA01476878E978000240EA22
:100E3000014007432168CA20486221685320486264
:100E4000204600F0D1F94FF0FF084FF00409A0BB95
:100E500016E00220BDE8F087002800DBEE7028785D
:100E600000F0B7F90204687800F0B3F942EA002212
:100E7000A87800F0AEF90243E87842EA0047D9E7E3
:100E800016480740206807602068816821F48021A7
:100E90008160D5E90301084321688A6810438860AE
:100EA0002068C16821F08001C160206880688006E8
:100EB0000BD4204600F014F838B12168C1F8248022
:100EC00084F81D9026770120C4E72168C1F82480AA
:100ED00084F81DA026770020BCE700007F7F7F00FC
:100EE00070B504460068C16821F0A001C160FFF739
:100EF000E7FA05464FF47A7607E000BFFFF7E0FA1D
:100F0000401BB04201D9032070BD2068C068800634
:100F1000F4D5002070BD10B5401EB0F1807F01D324
:100F2000012010BD4FF0E02460610F21601700F038
:100F3000A7FA0020A06107202061002010BD70B535
:100F4000040004D094F83900002510B106E0012017
:100F500070BD84F83850204600F022F8242084F830
:100F600039002068C16821F40051C160204600F0BA
:100F7000AFF92068016921F490410161206841695D
:100F800021F02A0141612068C16841F40051C1602B
:100F9000E563202084F8390084F83A00002070BD11
:100FA00010B586B0044614216846FFF749F9144984
:100FB0002068884221D11348016841F01001016086
:100FC000006800F0100005900E481438016841F0E8
:100FD000010101600068694600F0010005904FF4CE
:100FE000C060009002200190012002900320039035
:100FF000072004900448FFF793F906B010BD0000E5
:101000000010014044380240000002402DE9F8433E
:10101000044690F839001F4616460D46202850D148
:10102000B5B1AEB194F8380001284AD0012084F857
:1010300038004FF00008C4F83C80212084F83900C3
:10104000FFF73EFAA6848146E68484F8388026E0DD
:101050000120BDE8F883E08C401EE084A0684B4688
:10106000B0F5805F4FF000024FF0800120460097FE
:1010700003D000F0C1F9E8B90DE000F0BDF9C8B93E
:1010800028882168C0F308004860206908B16D1CF9
:1010900005E0AD1C03E0216815F8010B4860E08C09
:1010A0000028D8D14B46002240212046009700F06E
:1010B000A3F908B10320CCE7202084F839000020F0
:1010C000C7E70220C5E7FEE730B587B014216846C0
:1010D000FFF7B6F81E480024016841F004010160E2
:1010E000016801F004010591016841F0010101600E
:1010F000016801F001010591016841F00201016000
:101100000068144D00F0020005900022FF212846DF
:10111000FFF7D0F93E20CDE9000469460E4802945D
:10112000FFF7FEF8FF2000900120CDE90104694699
:1011300028460394FFF7F4F84FF2FF70CDE900045E
:10114000694606480294FFF7EBF807B030BD00008F
:101150003038024000000240000802400004024013
:1011600010B586B014216846FFF76AF816480024C7
:1011700014490594C0E900147F218160FF21C0E972
:10118000031444618461FFF76FFD8DF800408DF812
:1011900001408DF802400394012269460A480494F4
:1011A000FFF728FE01208DF814008DF815008DF84A
:1011B000160002468DF8174005A90348FFF7B6FD53
:1011C00006B010BD0028004018000020FEE7704760
:1011D0007047002102E00A38C0B2491C0A28FAD23E
:1011E000090740EA1160704770B504460068C1689D
:1011F000490614D44FF0FF31C160FFF761F905468D
:101200004FF47A7607E000BFFFF75AF9401BB0426F
:1012100001D9032070BD2068C0684006F4D50020C5
:1012200070BD7047FFF752B910B598B030216846CD
:10123000FFF706F814210CA8FFF702F8142111A8F3
:10124000FEF7FEFF19480024016841F0805101605B
:10125000006800F0805016901548016821F4404164
:1012600041F4004101600068102100F440401690F4
:101270000A2000900120CDE90301CDE9050468466C
:10128000FFF744FB0F20CDE90C040E940F940021CE
:101290000CA81094FFF74EFA02201190000214904F
:1012A00011A8FFF79FF918B010BD000040380240A8
:1012B000007000400548016841F470010160034975
:1012C0004FF00060803908607047000088ED00E052
:1012D0002DE9F041044600680169E26821F44051BB
:1012E000114301612169A068E26908436169114302
:1012F00008432168CA6849F20C639A430243CA60F2
:1013000020684169A26921F4407111434161E0699B
:10131000192764253226B0F5004F354A3549206833
:101320004FF0000806D0884201D0904236D1FFF736
:10133000ABFA35E0884201D0904202D1FFF7A4FA1F
:1013400001E0FFF791FA61684A18A0FB070148EB3A
:101350000803FEF73DFF0146B0FBF5F00201B1FBCB
:10136000F5F06FF01803584301EB800006EBC00066
:10137000B0FBF5F000F0F80002EB4002B1FBF5F035
:10138000584301EB800006EBC000B0FBF5F000F025
:101390000700216810448860BDE8F081FFF764FA17
:1013A00061688B0F8A00A0FB0701FEF711FF014661
:1013B000B0FBF5F06FF01802504301EB800006EB34
:1013C0000010B0FBF5F000F0F002B1FBF5F002EB1D
:1013D0000012B1FBF5F06FF01803584301EB8000E9
:1013E00006EB0010B0FBF5F000F00F00D1E70000B5
:1013F00000140140001001402DE9F04198461746C5
:101400000E460446069D1DE0681C1BD02DB1FFF75B
:1014100057F8A0EB0800A84214D92068C16821F44D
:10142000D071C1602068416921F001014161202033
:1014300084F8390084F83A00002084F8380003204A
:10144000BDE8F0812068006836EA000004D0002082
:10145000B842D9D00020F3E70120F9E7FEE7000009
:101460000FB4054B10B503A9044A029800F028F800
:1014700010BC5DF814FB0000811700081400002068
:101480000907090E002804DB00F1E02080F80014B1
:10149000704700F00F0000F1E02080F8141D704745
:1014A00002E008C8121F08C1002AFAD1704770472D
:1014B000002001E001C1121F002AFBD1704700008B
:1014C0002DE9FF4F8DB09B460F460446002606E0EF
:1014D00025280BD05A460F999047641C761C20781B
:1014E0000028F5D111B03046BDE8F08F0025A846A0
:1014F0000122984900E0054314F8013F203B02FA1D
:1015000003F00842F7D120782E2817D114F8010FE4
:1015100045F004052A280ED06FF02F022078A0F1A4
:10152000300109290AD808EB880102EB410100EBE0
:101530000108641CF2E757F8048B641C20786C28BF
:101540000DD004DC4C2812D06A2811D104E0742894
:101550000DD07A280CD10AE045F4001507E0617837
:1015600045F48015814202D1641C05F58015641C88
:101570002078692844D008DC0028B3D0582867D0E8
:1015800063280FD0642808D13AE0702865D073280A
:1015900012D075285AD078285AD05A460F999047B9
:1015A000761CD5E017F8040B8DF8000000208DF8AC
:1015B0000100E946012003E057F8049B4FF0FF309B
:1015C00069074FF0000501D40AE06D1C45450DDAAE
:1015D0008542FADB19F805100029F6D106E06D1CEA
:1015E0008542FCDB19F805100029F8D12E4404E0EF
:1015F00019F8010B5A460F9990476D1EF8D2A7E0D3
:101600000A200021CDE90801C5F3025002280CD0C0
:1016100001CFC117021E71F100020CDA0023D0EBDA
:10162000030063EB01012D2208E0FF1D27F00707EF
:10163000F7E80201EEE72A0504D52B228DF82820D1
:1016400001223CE0EA073AD02022F7E70A2000E036
:1016500010200021CDE9080107E01020002145F00D
:101660000405CDE908014FF00808C5F3025002282F
:1016700010D001CF00214FF0000A2A0720D5227890
:10168000702A0DD0DDE908C38CF0100C5CEA030C65
:101690000CD015E0FF1D27F00707F7E80201EAE785
:1016A00040228DF828204FF0010A0CE050EA010397
:1016B00006D030238DF828308DF82920022292465A
:1016C0002278582A04D024A20DF120090B9209E0B7
:1016D00026A2F9E7DDE90823FEF77AFD0B9B9B5C68
:1016E00009F8013D50EA0102F4D1ADEB09002030C8
:1016F0000890680701D44FF001080899884503DD78
:101700000898A8EB000000E000208046002506E0D5
:101710000AA85A46405D0F9990476D1C761C5545A6
:10172000F6DB04E030205A460F999047761CB8F15A
:101730000001A8F10108F5DC05E019F8010B5A4693
:101740000F999047761C0899481E08900029F4DCF0
:10175000641CC4E609280100303132333435363791
:1017600038396162636465660000000030313233ED
:10177000343536373839414243444546000000008D
:1017800013B50F23012269460248FFF73FFC00987A
:101790001CBD00003800002010B5084C00220221BA
:1017A0002046FEF787FE0120FEF79AFD2046012223
:1017B000BDE810400221FEF77DBE00000008024097
:1017C000FEF78CFEFFF730FDFFF77EFCFFF7C8FC4D
:1017D000124811490C2201604FF4E13141600021AF
:1017E0008160C160C0E904128161C161FFF7A7FB9C
:1017F0000B4C00BFFFF7D0FF122000F029F800F0DB
:1018000017F8014607A0FFF72BFE00F017F820702D
:101810000120FEF765FDEDE70010014038000020D3
:1018200000000020413A20257878787800000000F8
:101830000148006880B27047100402400348024922
:1018400001600069C0B270470000AAAA000002400F
:10185000024945F255520A60486170470000024053
:101860000000000000000000010203040607080950
:101870000000000001020304981800080000002086
:1018800018000000A0140008B0180008180000207C
:1018900060040000B0140008000000000100000017
:1018A00010000000000000000024F4000000000010
:040000050800019559
:00000001FF
